:020000040800F2
:1000000000500020AD150008890F0008910F00086E
:10001000990F0008A10F0008A90F000800000000B8
:10002000000000000000000000000000B10F000808
:10003000BD0F000800000000C90F0008D50F000820
:10004000F5150008F5150008F5150008F515000868
:10005000F5150008F5150008F5150008F515000858
:10006000F5150008F5150008F5150008F515000848
:10007000F5150008F5150008F5150008F515000838
:10008000F5150008F5150008F5150008F515000828
:10009000F5150008F5150008F5150008F515000818
:1000A000F5150008F5150008F5150008F515000808
:1000B000E10F0008F50F000809100008F515000809
:1000C000F5150008F5150008F5150008F5150008E8
:1000D000F51500081D100008F5150008F5150008B5
:1000E000F5150008F5150008F515000800000000DA
:1000F0000000000000000000000000000000000000
:0C01000000000000000000005FF808F1A3
:10010C0010B5054C237833B9044B13B10448AFF345
:10011C0000800123237010BD0C00002000000000A3
:10012C00FC46000808B5034B1BB103490348AFF369
:10013C00008008BD0000000010000020FC460008F4
:10014C0080B588B000AF07F1100300221A605A6026
:10015C009A60DA603F4B9B693E4A43F0100393610F
:10016C003C4B9B6903F01003FB60FB68394B9B69AC
:10017C00384A43F020039361364B9B6903F020030C
:10018C00BB60BB68334B9B69324A43F004039361F9
:10019C00304B9B6903F004037B607B682D4B9B69A0
:1001AC002C4A43F0080393612A4B9B6903F0080324
:1001BC003B603B6800224FF46041274801F0D3FDBF
:1001CC00002241F2B301254801F0CDFD002240F29E
:1001DC003331234801F0C7FD4FF460433B610123E9
:1001EC007B610023BB610223FB6107F110031946FD
:1001FC00194801F01DFC41F2B3033B6101237B6103
:10020C000023BB610223FB6107F11003194613485D
:10021C0001F00EFC40F233333B6101237B61002380
:10022C00BB610223FB6107F1100319460C4801F076
:10023C00FFFB4FF478433B6100237B610023BB61E0
:10024C0007F110031946064801F0F2FB00BF2037F6
:10025C00BD4680BD00100240001001400008014066
:10026C00000C014080B500AF124B134A1A60114BC1
:10027C00124A5A600F4B00229A600E4B0022DA6031
:10028C000C4B4FF480421A610A4B00225A61094B05
:10029C0000229A61074B0022DA61064B00221A6297
:1002AC00044801F079FD0346002B01D000F02EFE2E
:1002BC0000BF80BD2800002000540040A086010033
:1002CC0080B588B000AF786007F1100300221A6087
:1002DC005A609A60DA607B681B68154A934223D196
:1002EC00144B9B69134A43F008039361114B9B69B0
:1002FC0003F00803FB60FB68C0233B6112237B61A6
:10030C000323FB6107F1100319460B4801F090FB26
:10031C00084BDB69074A43F40013D361054BDB69D7
:10032C0003F40013BB60BB6800BF2037BD4680BD23
:10033C000054004000100240000C014080B500AF9A
:10034C00094B0A4A1A60084B00225A60064B40F6C9
:10035C00FF729A60044801F063FE0346002B01D043
:10036C0000F0D4FD00BF80BD7C00002000300040B8
:10037C0080B500AF01F03AF900F008F9FFF7E0FEA4
:10038C0000F056FE01F08EF800F0EAFE00F060FF7F
:10039C00FFF768FFFFF7D2FF022000F0CBF9002037
:1003AC0000F0C8F9012000F0C5F9042000F0C2F9F2
:1003BC00032000F0BFF94FF47A7000F027FC0622FE
:1003CC006449654803F0D9FB40F21451002000F059
:1003DC00F3FC00BF614B1B78DBB2002BFAD04FF45F
:1003EC00C871012000F0E8FC00BF5D4B1B78DBB24C
:1003FC00002BFAD05B49032000F0DEFC00BF5A4B07
:10040C001B78DBB2002BFAD04FF4FA7000F0FEFB35
:10041C0001220121554801F0A6FC642000F0F6FBF6
:10042C0001220121514801F09EFC642000F0EEFBFA
:10043C0001224FF480414E4801F095FC642000F0FD
:10044C00E5FB4C49022000F0B7FC00BF4A4B1B787F
:10045C00DBB2002BFAD04FF47A7000F0D7FB0022FD
:10046C000121424801F07FFC642000F0CFFB002208
:10047C004FF480413E4801F076FCC82000F0C6FBEA
:10048C0001224FF400513A4801F06DFC642000F059
:10049C00BDFB01224FF48041354801F064FCC820BB
:1004AC0000F0B4FB40F63401022000F085FC00BFE4
:1004BC00314B1B78DBB2002BFAD04FF4FA6000F012
:1004CC00A5FB00224FF40051294801F04CFC64209C
:1004DC0000F09CFB01220121244801F044FC4FF464
:1004EC00967000F093FB00220121204801F03BFCA8
:1004FC004FF4967000F08AFB00224FF480411C48A8
:10050C0001F031FC022000F015F9042000F012F982
:10051C00002000F00FF9012000F00CF9032000F08E
:10052C0009F94FF47A7000F071FB144B1B78DBB2B5
:10053C00002BFAD0114B00221A70114B1B881BB2E6
:10054C00104A128811B2104A128812B2184600F0E2
:10055C0079FBEAE788000020A8010020C6000020F3
:10056C00C7000020B2FDFFFFC900002000080140B9
:10057C00001001400AF6FFFFC8000020B000002068
:10058C00AA000020AC000020AE00002080B590B086
:10059C0000AF07F1180328220021184604F07CF85C
:1005AC003B1D00221A605A609A60DA601A610923B6
:1005BC00BB614FF48033FB6100233B620123BB62C0
:1005CC0001233B6302237B634FF48033BB634FF403
:1005DC00E013FB6307F11803184601F065FD0346B1
:1005EC00002B01D000F092FC0F237B600223BB6038
:1005FC000023FB604FF480633B6100237B613B1D58
:10060C000221184601F0D2FF0346002B01D000F066
:10061C007DFC00BF4037BD4680BD000080B582B078
:10062C0000AF78603B4B00221A803B4B00221A80B3
:10063C003A4B00221A807B681B68394A934260D17E
:10064C00384B1B781AB2374B5B781BB21B021BB2B0
:10065C0013431AB22F4B1A80324B9B781AB2314B80
:10066C00DB781BB21B021BB213431AB22A4B1A8043
:10067C002C4B1B791AB22B4B5B791BB21B021BB296
:10068C0013431AB2254B1A80224B1B881BB2DAB2C9
:10069C00254B1A701F4B1B881BB21B121BB2DAB2F4
:1006AC00214B5A701C4B1B881BB2DAB21E4B9A7032
:1006BC00194B1B881BB21B121BB2DAB21A4BDA7025
:1006CC00164B1B881BB2DAB2174B1A71134B1B88D3
:1006DC001BB21B121BB2DAB2134B5A7164230622E3
:1006EC001149124803F0BEF9114B01221A70102265
:1006FC0000210C4803F0D0FF102200210A4803F01F
:10070C00CBFF06220749094803F037FA00BF083728
:10071C00BD4680BDAA000020AC000020AE00002029
:10072C00003801408800002098000020A80100201B
:10073C00B000002080B58AB000AF0346FB71FB7996
:10074C00042B00F24F8101A252F823F06D07000830
:10075C00DF070008A108000811090008810900083A
:10076C0000F09CFFB860A64B00221A702CE04FF4EE
:10077C008051A44801F0E0FA0346FB76FB7E012B86
:10078C000AD10821A04802F0B7FA9D4B01221A7039
:10079C009E4B00221A8017E06FF0C701002000F07A
:1007AC000BFB00F07BFF0246BB68D31A42F21072BF
:1007BC00934209D90821944802F09EFA64230F222F
:1007CC009349944803F04EF98D4B1B78002BCED0F7
:1007DC0011E100F063FF7862894B00221A7000234C
:1007EC0087F8233050E04FF40051864801F0A4FA0A
:1007FC000346FB76FB7E012B0AD10C21824802F0CA
:10080C007BFA7F4B01221A70834B00221A8040E046
:10081C0097F82330002B05D16FF0C701012000F0B1
:10082C00CBFA03E0C821012000F0C6FA00BF7B4BD5
:10083C001B78DBB2002BFAD0784B00221A7000F038
:10084C002DFF02467B6AD31AFB60FB6842F21072E2
:10085C0093420AD90C216C4802F04EFA64230F2201
:10086C006F496C4803F0FEF813E0FB6841F28832E4
:10087C00934209D997F82330002B05D1012387F82F
:10088C00233000F00BFF78625D4B1B78002BAAD055
:10089C00B1E0B0E000F002FF3861594B00221A7051
:1008AC002BE04FF48041574801F046FA0346FB76A3
:1008BC00FB7E012B0AD10021534802F01DFA504B4C
:1008CC0001221A70574B00221A8016E0C821022010
:1008DC0000F072FA00F0E2FE02463B69D31A42F2D3
:1008EC001072934209D90021474802F005FA64239B
:1008FC000F224D49474803F0B5F8414B1B78002BAC
:10090C00CFD078E000F0CAFE78613D4B00221A701F
:10091C002BE04FF400413B4801F00EFA0346FB7606
:10092C00FB7E012B0AD10421374802F0E5F9344B48
:10093C0001221A703D4B00221A8016E0C8210320B8
:10094C0000F03AFA00F0AAFE02467B69D31A42F292
:10095C001072934209D904212B4802F0CDF964237B
:10096C000F2233492B4803F07DF8254B1B78002BC5
:10097C00CFD040E000F092FEF861002387F82230DF
:10098C002BE04FF400611F4801F0D6F90346FB76CB
:10099C00FB7E012B0AD10021264802F0ADF9012380
:1009AC0087F82230244B00221A8016E0C82104203C
:1009BC0000F002FA00F072FE0246FB69D31A42F212
:1009CC001072934209D900211A4802F095F9642358
:1009DC000F221A490F4803F045F897F82230002BE4
:1009EC00CFD008E064230F2215490A4803F03AF8E7
:1009FC0000F08CFA00BF00BF2837BD4680BD00BF99
:100A0C00A8000020000C0140D0000020B200002003
:100A1C0014470008A8010020B6000020C7000020E1
:100A2C0028470008BA0000203C470008BE00002000
:100A3C005047000818010020C2000020644700083D
:100A4C007847000880B582B000AF78607B681A6880
:100A5C00504B1B689A4276D17B681B7F042B19D1B3
:100A6C004D4B1B889BB201339AB24B4B1A804A4BAD
:100A7C001B889AB2494B1B889BB29A4263D30821BC
:100A8C00444802F039F9444B00221A80444B0122AD
:100A9C001A7058E07B681B7F082B19D1414B1B88BF
:100AAC009BB201339AB23F4B1A803E4B1B889AB2D1
:100ABC003D4B1B889BB29A4245D30C21354802F022
:100ACC001BF9384B00221A80384B01221A703AE07D
:100ADC007B681B7F012B19D1354B1B889BB20133D3
:100AEC009AB2334B1A80324B1B889AB2314B1B880B
:100AFC009BB29A4227D30021264802F0FDF82C4BDA
:100B0C0000221A802C4B01221A701CE07B681B7F80
:100B1C00022B18D1294B1B889BB201339AB2274B5D
:100B2C001A80264B1B889AB2254B1B889BB29A4283
:100B3C0009D30421174802F0DFF8204B00221A8059
:100B4C00204B01221A707B681A681F4B1B689A4253
:100B5C001CD17B681B7F012B18D11C4B1B889BB2B3
:100B6C0001339AB2194B1A80184B1B889AB2184B46
:100B7C001B889BB29A4209D30021134802F0BCF89F
:100B8C00124B00221A80134B01221A7000BF083737
:100B9C00BD4680BDD0000020B2000020B400002073
:100BAC00C6000020B6000020B8000020C7000020BE
:100BBC00BA000020BC000020C8000020BE000020AD
:100BCC00C0000020C900002018010020C200002035
:100BDC00C4000020CA00002080B483B000AF78604D
:100BEC007B68084A934203D0074B1B68002B04D048
:100BFC00054B1B68013B044A136000BF0C37BD4614
:100C0C0080BC704760010020CC00002080B582B011
:100C1C0000AF0346FB80FB88084A1360084801F0CC
:100C2C00A3FE00BF054B1B68002BFBD1044801F051
:100C3C00EDFE00BF0837BD4680BD00BFCC000020D4
:100C4C006001002080B582B000AF0346FB800B46EC
:100C5C00BB8013467B800020FFF76CFD0120FFF763
:100C6C0069FD0220FFF766FD0320FFF763FD0420FA
:100C7C00FFF760FD4FF4FA70FFF7C8FF464B0022F8
:100C8C001A70464B00221A70454B00221A70454BC5
:100C9C0000221A70444B00221A707B8803F2DC533A
:100CAC009BB21BB21946002000F086F800BF3A4BED
:100CBC001B78DBB2002BFAD06420FFF7A7FFB7F943
:100CCC0004301946012000F077F800BF334B1B7835
:100CDC00DBB2002BFAD06420FFF798FFB7F906308F
:100CEC001946042000F068F800BF2F4B1B78DBB2CC
:100CFC00002BFAD06420FFF789FF2C49022000F06A
:100D0C005BF800BF264B1B78DBB2002BFAD06420BB
:100D1C00FFF77CFF01224FF40051254801F023F826
:100D2C006420FFF773FF01224FF48041204801F04B
:100D3C001AF84FF4FA70FFF769FF4FF4967102201E
:100D4C0000F03AF800BF164B1B78DBB2002BFAD040
:100D5C0040F2DC50FFF75AFF00224FF400511448C8
:100D6C0001F001F86420FFF751FF00224FF480419D
:100D7C000F4800F0F8FF012201210E4800F0F3FFAC
:100D8C003220FFF743FF002201210A4800F0EBFF5D
:100D9C0000BF0837BD4680BDC6000020C70000203C
:100DAC00C8000020C9000020CA0000208AFDFFFFF7
:100DBC00001001400008014080B584B000AF03462C
:100DCC000A46FB711346BB80B7F90430002BB8BF41
:100DDC005B42FB81FB79042B78D801A252F823F0FB
:100DEC00010E00082B0E00085B0E0008850E000893
:100DFC00AF0E0008BB88DB439BB2DB0BDBB21A46A1
:100E0C000221344800F0AFFF334AFB891380334B87
:100E1C0000221A800821324801F07EFE57E0B7F913
:100E2C000430DB131BB2DBB203F00103DBB21A4656
:100E3C001021284800F097FF2A4AFB8913802A4B7F
:100E4C0000221A800C21264801F066FE3FE0BB8888
:100E5C00DB439BB2DB0BDBB21A460121234800F0CB
:100E6C0082FF234AFB891380224B00221A80002127
:100E7C001B4801F051FE2AE0BB88DB439BB2DB0B25
:100E8C00DBB21A460221194800F06DFF1A4AFB89A1
:100E9C0013801A4B00221A800421114801F03CFEE9
:100EAC0015E0BB88DB439BB2DB0BDBB21A4680211F
:100EBC00084800F058FF124AFB891380114B00229E
:100ECC001A800021104801F027FE00E000BF103707
:100EDC00BD4680BD00080140B4000020B2000020D7
:100EEC00D0000020B8000020B6000020000C01400B
:100EFC00BC000020BA000020C0000020BE00002072
:100F0C00C4000020C20000201801002080B400AFF3
:100F1C0000BFBD4680BC704780B485B000AF154B98
:100F2C009B69144A43F001039361124B9B6903F0D4
:100F3C000103BB60BB680F4BDB690E4A43F0805367
:100F4C00D3610C4BDB6903F080537B607B680A4BED
:100F5C005B68FB60FB6823F0E063FB60FB6843F0BD
:100F6C000073FB60044AFB68536000BF1437BD4636
:100F7C0080BC7047001002400000014080B400AFFC
:100F8C0000BFFDE780B400AF00BFFDE780B400AF49
:100F9C0000BFFDE780B400AF00BFFDE780B400AF39
:100FAC0000BFFDE780B400AF00BFBD4680BC7047FA
:100FBC0080B400AF00BFBD4680BC704780B400AFAA
:100FCC0000BFBD4680BC704780B500AF00F054FB3D
:100FDC0000BF80BD80B500AF024801F03FFF00BFED
:100FEC0080BD00BFD000002080B500AF024801F0EA
:100FFC0035FF00BF80BD00BF1801002080B500AFD9
:10100C00024801F02BFF00BF80BD00BF6001002033
:10101C0080B500AF024802F0D5FD00BF80BD00BF17
:10102C00A801002080B400AF00BFBD4680BC704753
:10103C0080B58EB000AF07F1280300221A605A6009
:10104C009A60DA6007F1200300221A605A603B1D97
:10105C0000221A605A609A60DA601A615A619A61C9
:10106C003E4B4FF080421A603C4B47225A603B4B40
:10107C0000229A60394B40F2E732DA60374B00229B
:10108C001A61364B00229A61344801F01DFC03466C
:10109C00002B01D0FFF73AFF4FF48053BB6207F1EE
:1010AC00280319462D4802F08BF80346002B01D07B
:1010BC00FFF72CFF294801F0D7FC0346002B01D089
:1010CC00FFF724FF00233B6200237B6207F1200320
:1010DC001946224802F006FC0346002B01D0FFF70C
:1010EC0015FF60237B604FF4FA73BB600023FB6039
:1010FC0000237B613B1D00221946184801F09EFF1E
:10110C000346002B01D0FFF701FF3B1D04221946BB
:10111C00124801F093FF0346002B01D0FFF7F6FEB7
:10112C003B1D082219460D4801F088FF0346002B91
:10113C0001D0FFF7EBFE3B1D0C221946074801F0CE
:10114C007DFF0346002B01D0FFF7E0FE034800F0C3
:10115C0029F900BF3837BD4680BD00BFD000002044
:10116C0080B58EB000AF07F1280300221A605A60D8
:10117C009A60DA6007F1200300221A605A603B1D66
:10118C0000221A605A609A60DA601A615A619A6198
:10119C002D4B2E4A1A602C4B47225A602A4B0022A8
:1011AC009A60294B40F2E732DA60274B00221A6131
:1011BC00254B00229A61244801F086FB0346002B44
:1011CC0001D0FFF7A3FE4FF48053BB6207F1280355
:1011DC0019461D4801F0F4FF0346002B01D0FFF720
:1011EC0095FE194801F040FC0346002B01D0FFF797
:1011FC008DFE00233B6200237B6207F1200319461E
:10120C00114802F06FFB0346002B01D0FFF77EFE66
:10121C0060237B604FF4FA73BB600023FB600023F8
:10122C007B613B1D00221946074801F007FF03466E
:10123C00002B01D0FFF76AFE034800F0B3F800BFA3
:10124C003837BD4680BD00BF1801002000040040A7
:10125C0080B586B000AF07F1080300221A605A600F
:10126C009A60DA603B4600221A605A601D4B1E4A97
:10127C001A601C4B47225A601A4B00229A60194B79
:10128C0040F2E732DA60174B00221A61154B00224C
:10129C009A61144801F018FB0346002B01D0FFF7AC
:1012AC0035FE4FF48053BB6007F1080319460D4817
:1012BC0001F086FF0346002B01D0FFF727FE002329
:1012CC003B6000237B603B461946064802F00AFB54
:1012DC000346002B01D0FFF719FE00BF1837BD469F
:1012EC0080BD00BF600100200008004080B586B0C2
:1012FC0000AF78607B681B68B3F1804F14D1264B2C
:10130C00DB69254A43F00103D361234BDB6903F00E
:10131C0001037B617B69002200211C2000F09FFAF5
:10132C001C2000F0B8FA32E07B681B681B4A934221
:10133C0014D1194BDB69184A43F00203D361164BE5
:10134C00DB6903F002033B613B69002200211D2095
:10135C0000F085FA1D2000F09EFA18E07B681B68EF
:10136C000F4A934213D10C4BDB690B4A43F0040335
:10137C00D361094BDB6903F00403FB60FB680022BB
:10138C0000211E2000F06BFA1E2000F084FA00BF32
:10139C001837BD4680BD00BF00100240000400405D
:1013AC000008004080B58AB000AF786007F11403E4
:1013BC0000221A605A609A60DA607B681B68B3F18D
:1013CC00804F43D1324B9B69314A43F00403936104
:1013DC002F4B9B6903F004033B613B692C4B9B69CE
:1013EC002B4A43F008039361294B9B6903F00803D4
:1013FC00FB60FB6848F20C037B610223BB61022398
:10140C003B6207F114031946224800F011FB082334
:10141C007B610223BB6102233B6207F11403194673
:10142C001D4800F005FB1D4B5B687B627B6A23F457
:10143C0040737B627B6A43F0E0637B627B6A43F4BC
:10144C0080737B62154A7B6A53601CE07B681B6867
:10145C00134A934217D10E4B9B690D4A43F0040378
:10146C0093610B4B9B6903F00403BB60BB68402387
:10147C007B610223BB6102233B6207F11403194613
:10148C00044800F0D5FA00BF2837BD4680BD00BF28
:10149C000010024000080140000C01400000014017
:1014AC000004004080B500AF114B124A1A60104B7B
:1014BC004FF416525A600E4B00229A600C4B0022CD
:1014CC00DA600B4B00221A61094B0C225A61084B53
:1014DC0000229A61064B0022DA61054802F072FA8A
:1014EC000346002B01D0FFF711FD00BF80BD00BFEC
:1014FC00A80100200038014080B588B000AF7860AA
:10150C0007F1100300221A605A609A60DA607B6857
:10151C001B68204A934239D11F4B9B691E4A43F4E6
:10152C00804393611C4B9B6903F48043FB60FB6815
:10153C00194B9B69184A43F004039361164B9B6942
:10154C0003F00403BB60BB684FF400733B610223E0
:10155C007B610323FB6107F1100319460F4800F070
:10156C0067FA4FF480633B6100237B610023BB610E
:10157C0007F110031946094800F05AFA002200211D
:10158C00252000F06CF9252000F085F900BF2037EC
:10159C00BD4680BD003801400010024000080140EB
:1015AC00FFF740FD0B480C490C4A002302E0D458CD
:1015BC00C4500433C4188C42F9D3094A094C002393
:1015CC0001E013600432A242FBD303F06DF8FEF786
:1015DC00CFFE7047000000200C000020BC47000824
:1015EC000C000020F4010020FEE7000080B500AFE5
:1015FC00084B1B68074A43F010031360032000F0EC
:10160C0023F90F2000F008F8FFF786FC002318469A
:10161C0080BD00BF0020024080B582B000AF786072
:10162C00124B1A68124B1B7819464FF47A73B3FBA2
:10163C00F1F3B2FBF3F3184600F03BF90346002B31
:10164C0001D001230EE07B680F2B0AD800227968A9
:10165C004FF0FF3000F003F9064A7B68136000235B
:10166C0000E0012318460837BD4680BD000000206D
:10167C00080000200400002080B400AF054B1B784C
:10168C001A46054B1B681344034A136000BFBD4642
:10169C0080BC704708000020F001002080B400AF2F
:1016AC00024B1B681846BD4680BC7047F0010020F9
:1016BC0080B485B000AF78607B6803F00703FB60F3
:1016CC000C4BDB68BB60BA684FF6FF031340BB6082
:1016DC00FB681A02BB68134343F0BF6343F4003347
:1016EC00BB60044ABB68D36000BF1437BD4680BCE6
:1016FC00704700BF00ED00E080B400AF044BDB6826
:10170C001B0A03F007031846BD4680BC704700BF98
:10171C0000ED00E080B483B000AF0346FB7197F995
:10172C000730002B0BDBFB7903F01F02064997F9FE
:10173C0007305B09012000FA02F241F8232000BFB8
:10174C000C37BD4680BC704700E100E080B483B02C
:10175C0000AF03463960FB7197F90730002B0ADBA9
:10176C003B68DAB20C4997F907301201D2B20B443C
:10177C0083F800230AE03B68DAB20849FB7903F0EE
:10178C000F03043B1201D2B20B441A7600BF0C3784
:10179C00BD4680BC704700BF00E100E000ED00E0FA
:1017AC0080B489B000AFF860B9607A60FB6803F070
:1017BC000703FB61FB69C3F10703042B28BF042358
:1017CC00BB61FB690433062B02D9FB69033B00E0C8
:1017DC0000237B614FF0FF32BB6902FA03F3DA435B
:1017EC00BB681A407B699A404FF0FF317B6901FA64
:1017FC0003F3D9437B680B40134318462437BD468B
:10180C0080BC704780B582B000AF78607B68013BCC
:10181C00B3F1807F01D301230FE00A4A7B68013BBF
:10182C0053600F214FF0FF30FFF790FF054B002264
:10183C009A60044B07221A60002318460837BD46ED
:10184C0080BD00BF10E000E080B582B000AF7860D2
:10185C007868FFF72DFF00BF0837BD4680BD80B507
:10186C0086B000AF0346B9607A60FB7300237B61DE
:10187C00FFF742FF78617A68B9687869FFF790FFE3
:10188C00024697F90F3011461846FFF75FFF00BF6D
:10189C001837BD4680BD80B582B000AF0346FB71E2
:1018AC0097F907301846FFF735FF00BF0837BD46DC
:1018BC0080BD80B582B000AF78607868FFF7A2FF7A
:1018CC00034618460837BD4680BD80B485B000AFCE
:1018DC0078600023FB737B6893F82130DBB2022B1A
:1018EC0008D07B6804229A637B68002283F820204E
:1018FC00012320E07B681B681A687B681B6822F058
:10190C000E021A607B681B681A687B681B6822F0E1
:10191C0001021A607B681A6C7B68DB6B012101FA8F
:10192C0002F25A607B68012283F821207B68002236
:10193C0083F82020FB7B18461437BD4680BC7047CB
:10194C0080B584B000AF78600023FB737B6893F89C
:10195C002130DBB2022B05D07B6804229A63012371
:10196C00FB7351E07B681B681A687B681B6822F06C
:10197C000E021A607B681B681A687B681B6822F071
:10198C0001021A607B681B68224A934229D07B684B
:10199C001B68214A934222D07B681B681F4A9342E2
:1019AC001AD07B681B681E4A934212D07B681B6856
:1019BC001C4A93420AD07B681B681B4A934202D193
:1019CC004FF480130EE04FF080730BE04FF4803334
:1019DC0008E04FF4805305E04FF4807302E01023CD
:1019EC0000E00123114A53607B68012283F8212017
:1019FC007B68002283F820207B685B6B002B03D074
:101A0C007B685B6B78689847FB7B18461037BD4644
:101A1C0080BD00BF080002401C00024030000240A4
:101A2C0044000240580002406C000240000002409A
:101A3C0080B48BB000AF7860396000237B620023E8
:101A4C003B6269E101227B6A02FA03F3FB613B68AA
:101A5C001B68FA691340BB61BA69FB699A4240F092
:101A6C0058813B685B689A4A93425ED0984A93428D
:101A7C0075D8984A934258D0964A93426FD8964A52
:101A8C00934252D0944A934269D8944A93424CD090
:101A9C00924A934263D8924A934246D0904A9342D8
:101AAC005DD8122B2AD8122B59D801A252F823F048
:101ABC00371B0008111B0008231B0008651B0008BE
:101ACC006B1B00086B1B00086B1B00086B1B0008D2
:101ADC006B1B00086B1B00086B1B00086B1B0008C2
:101AEC006B1B00086B1B00086B1B00086B1B0008B2
:101AFC006B1B0008191B00082D1B0008794A934228
:101B0C0013D02CE03B68DB683B6229E03B68DB6868
:101B1C0004333B6224E03B68DB6808333B621FE024
:101B2C003B68DB680C333B621AE03B689B68002B1C
:101B3C0002D104233B6213E03B689B68012B05D167
:101B4C0008233B627B68FA691A6109E008233B624F
:101B5C007B68FA695A6103E000233B6200E000BF36
:101B6C00BB69FF2B01D87B6801E07B6804337B6188
:101B7C00BB69FF2B02D87B6A9B0002E07B6A083BA7
:101B8C009B003B617B691A680F213B6901FA03F3E7
:101B9C00DB431A40396A3B6901FA03F31A437B6948
:101BAC001A603B685B6803F08053002B00F0B18037
:101BBC004D4B9B694C4A43F0010393614A4B9B6923
:101BCC0003F00103BB60BB68484A7B6A9B08023385
:101BDC0052F82330FB607B6A03F003039B000F2257
:101BEC0002FA03F3DB43FA681340FB607B68404A5C
:101BFC00934213D07B683F4A93420DD07B683E4A98
:101C0C00934207D07B683D4A934201D1032306E0FF
:101C1C00042304E0022302E0012300E000237A6A9B
:101C2C0002F0030292009340FA681343FB602F49C1
:101C3C007B6A9B080233FA6841F823203B685B6897
:101C4C0003F48013002B06D02D4B9A682C49BB69EA
:101C5C0013438B6006E02A4B9A68BB69DB43284927
:101C6C0013408B603B685B6803F40013002B06D0B9
:101C7C00234BDA682249BB691343CB6006E0204B47
:101C8C00DA68BB69DB431E491340CB603B685B6879
:101C9C0003F40033002B06D0194B5A681849BB6962
:101CAC0013434B6006E0164B5A68BB69DB4314497F
:101CBC0013404B603B685B6803F48033002B21D0EE
:101CCC000F4B1A680E49BB6913430B6021E000BF30
:101CDC000000321000003110000022100000211012
:101CEC000000121000001110001002400000014012
:101CFC0000080140000C014000100140001401409C
:101D0C00000401400B4B1A68BB69DB4309491340C3
:101D1C000B607B6A01337B623B681A687B6A22FA30
:101D2C0003F3002B7FF48EAE00BF00BF2C37BD46F3
:101D3C0080BC70470004014080B485B000AF78606F
:101D4C000B467B807B689A687B881340002B02D003
:101D5C000123FB7301E00023FB73FB7B1846143754
:101D6C00BD4680BC704780B483B000AF78600B4632
:101D7C007B8013467B707B78002B03D07A887B6842
:101D8C001A6103E07B881A047B681A6100BF0C3768
:101D9C00BD4680BC7047000080B584B000AF786051
:101DAC007B68002B01D101232BE17B6893F83D303C
:101DBC00DBB2002B06D17B68002283F83C207868CC
:101DCC00FEF77EFA7B68242283F83D207B681B6833
:101DDC001A687B681B6822F001021A607B681B681A
:101DEC001A687B681B6842F400421A607B681B68A7
:101DFC001A687B681B6822F400421A6000F01EFD12
:101E0C00F8607B685B68814A934207D8FB68804A1C
:101E1C00934294BF01230023DBB206E0FB687D4AAA
:101E2C00934294BF01230023DBB2002B01D001238A
:101E3C00E7E0FB68784AA2FB03239B0CBB607B6842
:101E4C001B685B6823F03F017B681B68BA680A4318
:101E5C005A607B681B681B6A23F03F017B685B68D8
:101E6C006A4A934202D8BB68013309E0BB684FF45D
:101E7C00967202FB03F3694AA2FB03239B0901330D
:101E8C007A6812680B4313627B681B68DB6923F466
:101E9C004F4222F0FF027B685B685C498B4219D889
:101EAC00FB68591E7B685B685B00B1FBF3F3591C44
:101EBC0040F6FC730B40002B0AD0FB68591E7B6864
:101ECC005B685B00B1FBF3F30133C3F30B0351E02D
:101EDC0004234FE07B689B68002B11D1FB68581ED4
:101EEC007B6859680B465B000B44B0FBF3F3013382
:101EFC00C3F30B03002B0CBF01230023DBB212E056
:101F0C00FB68581E7B6859680B469B000B44990074
:101F1C000B44B0FBF3F30133C3F30B03002B0CBFE7
:101F2C0001230023DBB2002B01D0012322E07B68CC
:101F3C009B68002B0ED1FB68581E7B6859680B46BA
:101F4C005B000B44B0FBF3F30133C3F30B0343F41B
:101F5C0000430FE0FB68581E7B6859680B469B00DA
:101F6C000B4499000B44B0FBF3F30133C3F30B03A5
:101F7C0043F44043796809681343CB617B681B6861
:101F8C001B6823F0C0017B68DA697B681B6A1A4303
:101F9C007B681B680A431A607B681B689B6823F488
:101FAC00034323F0FF037A6811697A68D2681143FE
:101FBC007A6812680B4393607B681B68DB6823F0BC
:101FCC00FF017B685A697B689B691A437B681B68B5
:101FDC000A43DA607B681B681A687B681B6842F0EE
:101FEC0001021A607B6800221A647B68202283F845
:101FFC003D207B6800221A637B68002283F83E2018
:10200C00002318461037BD4680BD00BFA0860100D6
:10201C007F841E00FF083D0083DE1B43D34D6210FE
:10202C0080B584B000AF78607B68002B01D10123B0
:10203C0036E07B681B684CF6CC421A607B681B68E8
:10204C0045F255521A607B681B687A6852685A6070
:10205C007B681B687A6892689A60FFF71FFBF860D0
:10206C0011E0FFF71BFB0246FB68D31A41F23C322E
:10207C00934208D97B681B68DB6803F00303002BD1
:10208C0001D003230CE07B681B68DB6803F00303BF
:10209C00002BE6D17B681B684AF6AA221A60002343
:1020AC0018461037BD4680BD80B586B000AF78604D
:1020BC007B68002B01D1012372E27B681B6803F063
:1020CC000103002B00F08780924B5B6803F00C033C
:1020DC00042B0CD08F4B5B6803F00C03082B12D134
:1020EC008C4B5B6803F48033B3F5803F0BD1894B89
:1020FC001B6803F40033002B6CD07B685B68002BEF
:10210C0068D101234CE27B685B68B3F5803F06D154
:10211C00804B1B687F4A43F4803313602EE07B684E
:10212C005B68002B0CD17B4B1B687A4A23F4803301
:10213C001360784B1B68774A23F4802313601DE0EF
:10214C007B685B68B3F5A02F0CD1724B1B68714A8E
:10215C0043F4802313606F4B1B686E4A43F4803347
:10216C0013600BE06B4B1B686A4A23F480331360DB
:10217C00684B1B68674A23F4802313607B685B6899
:10218C00002B13D0FFF78AFA386108E0FFF786FAC4
:10219C0002463B69D31A642B01D9032300E25D4B41
:1021AC001B6803F40033002BF0D014E0FFF776FA31
:1021BC00386108E0FFF772FA02463B69D31A642BC8
:1021CC0001D90323ECE1534B1B6803F40033002BC0
:1021DC00F0D100E000BF7B681B6803F00203002B0A
:1021EC0063D04C4B5B6803F00C03002B0BD0494BBA
:1021FC005B6803F00C03082B1CD1464B5B6803F4A3
:10220C008033002B16D1434B1B6803F00203002BC9
:10221C0005D07B681B69012B01D00123C0E13D4B2C
:10222C001B6823F0F8027B685B69DB0039491343B8
:10223C000B603AE07B681B69002B20D0364B0122E7
:10224C001A60FFF72BFA386108E0FFF727FA02460D
:10225C003B69D31A022B01D90323A1E12D4B1B6837
:10226C0003F00203002BF0D02A4B1B6823F0F8027A
:10227C007B685B69DB00274913430B6015E0264B39
:10228C0000221A60FFF70AFA386108E0FFF706FA35
:10229C0002463B69D31A022B01D9032380E11D4B63
:1022AC001B6803F00203002BF0D17B681B6803F062
:1022BC000803002B3AD07B689B69002B19D0174B75
:1022CC0001221A60FFF7EAF9386108E0FFF7E6F936
:1022DC0002463B69D31A022B01D9032360E10D4B53
:1022EC005B6A03F00203002BF0D0012000F0CEFA61
:1022FC001CE00A4B00221A60FFF7D0F938610FE09E
:10230C00FFF7CCF902463B69D31A022B08D90323F9
:10231C0046E100BF001002400000424280044242ED
:10232C00924B5B6A03F00203002BE9D17B681B68BC
:10233C0003F00403002B00F0A6800023FB758B4BED
:10234C00DB6903F08053002B0DD1884BDB69874A86
:10235C0043F08053D361854BDB6903F08053BB6042
:10236C00BB680123FB75824B1B6803F48073002B45
:10237C0018D17F4B1B687E4A43F480731360FFF7C0
:10238C008DF9386108E0FFF789F902463B69D31AE9
:10239C00642B01D9032303E1754B1B6803F4807391
:1023AC00002BF0D07B68DB68012B06D16F4B1B6ACE
:1023BC006E4A43F0010313622DE07B68DB68002B4F
:1023CC000CD16A4B1B6A694A23F001031362674BF9
:1023DC001B6A664A23F0040313621CE07B68DB680B
:1023EC00052B0CD1614B1B6A604A43F0040313624A
:1023FC005E4B1B6A5D4A43F0010313620BE05B4BBF
:10240C001B6A5A4A23F001031362584B1B6A574A42
:10241C0023F0040313627B68DB68002B15D0FFF7F5
:10242C003DF938610AE0FFF739F902463B69D31AE6
:10243C0041F28832934201D90323B1E04B4B1B6A22
:10244C0003F00203002BEED014E0FFF727F93861FC
:10245C000AE0FFF723F902463B69D31A41F28832AE
:10246C00934201D903239BE0404B1B6A03F0020308
:10247C00002BEED1FB7D012B05D13C4BDB693B4A9C
:10248C0023F08053D3617B68DB69002B00F08780DD
:10249C00364B5B6803F00C03082B61D07B68DB695F
:1024AC00022B46D1334B00221A60FFF7F7F8386144
:1024BC0008E0FFF7F3F802463B69D31A022B01D967
:1024CC0003236DE0294B1B6803F00073002BF0D144
:1024DC007B681B6AB3F5803F08D1244B5B6823F4FF
:1024EC0000327B689B68214913434B601F4B5B6830
:1024FC0023F474127B68196A7B685B6A0B431B4973
:10250C0013434B601B4B01221A60FFF7C7F838616D
:10251C0008E0FFF7C3F802463B69D31A022B01D936
:10252C0003233DE0114B1B6803F00073002BF0D02C
:10253C0035E0104B00221A60FFF7B0F8386108E064
:10254C00FFF7ACF802463B69D31A022B01D90323DF
:10255C0026E0064B1B6803F00073002BF0D11EE045
:10256C007B68DB69012B07D1012319E000100240C5
:10257C0000700040600042420B4B5B68FB60FB68E4
:10258C0003F480327B681B6A9A4206D1FB6803F421
:10259C0070127B685B6A9A4201D0012300E0002331
:1025AC0018461837BD4680BD0010024080B584B077
:1025BC0000AF786039607B68002B01D10123D0E03B
:1025CC006A4B1B6803F007033A689A4210D9674BB1
:1025DC001B6823F0070265493B6813430B60634B90
:1025EC001B6803F007033A689A4201D00123B8E054
:1025FC007B681B6803F00203002B20D07B681B68F0
:10260C0003F00403002B05D0594B5B68584A43F484
:10261C00E06353607B681B6803F00803002B05D054
:10262C00534B5B68524A43F460535360504B5B68A6
:10263C0023F0F0027B689B684D4913434B607B6829
:10264C001B6803F00103002B40D07B685B68012BF7
:10265C0007D1474B1B6803F40033002B15D1012322
:10266C007FE07B685B68022B07D1414B1B6803F052
:10267C000073002B09D1012373E03D4B1B6803F061
:10268C000203002B01D101236BE0394B5B6823F073
:10269C0003027B685B68364913434B60FEF7FEFF11
:1026AC00F8600AE0FEF7FAFF0246FB68D31A41F223
:1026BC008832934201D9032353E02D4B5B6803F01E
:1026CC000C027B685B689B009A42EBD1274B1B6822
:1026DC0003F007033A689A4210D2244B1B6823F08C
:1026EC00070222493B6813430B60204B1B6803F025
:1026FC0007033A689A4201D0012332E07B681B68D9
:10270C0003F00403002B08D0194B5B6823F4E06240
:10271C007B68DB68164913434B607B681B6803F0CE
:10272C000803002B09D0124B5B6823F460527B68C2
:10273C001B69DB000E4913434B6000F021F8024685
:10274C000B4B5B681B0903F00F030A49CB5C22FAA5
:10275C0003F3094A1360094B1B681846FEF75CFF2C
:10276C00002318461037BD4680BD00BF0020024034
:10277C0000100240884700080000002004000020E0
:10278C0080B487B000AF0023FB600023BB60002344
:10279C007B6100237B6000233B611E4B5B68FB600D
:1027AC00FB6803F00C03042B02D0082B03D027E0AA
:1027BC00194B3B6127E0FB689B0C03F00F03174A96
:1027CC00D35C7B60FB6803F48033002B10D0114B7F
:1027DC005B685B0C03F00103114AD35CBB607B6844
:1027EC000D4A03FB02F2BB68B2FBF3F37B6104E01E
:1027FC007B680C4A02FB03F37B617B693B6102E063
:10280C00054B3B6100BF3B6918461C37BD4680BC7D
:10281C00704700BF0010024000127A00A047000869
:10282C00B047000800093D0080B400AF024B1B68A4
:10283C001846BD4680BC70470000002080B500AF34
:10284C00FFF7F2FF0246054B5B681B0A03F0070318
:10285C000349CB5C22FA03F3184680BD00100240FA
:10286C009847000880B500AFFFF7DEFF0246054B26
:10287C005B68DB0A03F007030349CB5C22FA03F322
:10288C00184680BD001002409847000880B485B0FF
:10289C0000AF78600A4B1B680A4AA2FB03235B0A51
:1028AC007A6802FB03F3FB6000BFFB685A1EFA60F8
:1028BC00002BF9D100BF00BF1437BD4680BC704758
:1028CC0000000020D34D621080B582B000AF78605C
:1028DC007B68002B01D1012341E07B6893F83D30EC
:1028EC00DBB2002B06D17B68002283F83C20786891
:1028FC00FEF7FCFC7B68022283F83D207B681A689B
:10290C007B6804331946104600F03CFD7B680122BD
:10291C0083F846207B68012283F83E207B680122E5
:10292C0083F83F207B68012283F840207B680122DA
:10293C0083F841207B68012283F842207B680122C6
:10294C0083F843207B68012283F844207B680122B2
:10295C0083F845207B68012283F83D20002318462C
:10296C000837BD4680BD000080B485B000AF7860EC
:10297C007B6893F83D30DBB2012B01D001233AE0A8
:10298C007B68022283F83D207B681B68DA687B68D1
:10299C001B6842F00102DA607B681B68184A93429C
:1029AC000ED07B681B68B3F1804F09D07B681B6825
:1029BC00144A934204D07B681B68134A934211D18A
:1029CC007B681B689B6803F00703FB60FB68062BA6
:1029DC0010D07B681B681A687B681B6842F0010288
:1029EC001A6007E07B681B681A687B681B6842F0FA
:1029FC0001021A60002318461437BD4680BC70478C
:102A0C00002C0140000400400008004080B483B05A
:102A1C0000AF78607B681B68DA687B681B6822F003
:102A2C000102DA607B681B681A6A41F211131340C9
:102A3C00002B0FD17B681B681A6A40F24443134089
:102A4C00002B07D17B681B681A687B681B6822F017
:102A5C0001021A607B68012283F83D20002318468E
:102A6C000C37BD4680BC704780B582B000AF786033
:102A7C007B68002B01D1012341E07B6893F83D304A
:102A8C00DBB2002B06D17B68002283F83C207868EF
:102A9C0000F039F87B68022283F83D207B681A68C5
:102AAC007B6804331946104600F06CFC7B680122ED
:102ABC0083F846207B68012283F83E207B68012244
:102ACC0083F83F207B68012283F840207B68012239
:102ADC0083F841207B68012283F842207B68012225
:102AEC0083F843207B68012283F844207B68012211
:102AFC0083F845207B68012283F83D20002318468B
:102B0C000837BD4680BD80B483B000AF786000BF8D
:102B1C000C37BD4680BC704780B584B000AF786080
:102B2C0039600023FB733B68002B09D17B6893F859
:102B3C003E30DBB2012B14BF01230023DBB222E0B9
:102B4C003B68042B09D17B6893F83F30DBB2012B37
:102B5C0014BF01230023DBB215E03B68082B09D11D
:102B6C007B6893F84030DBB2012B14BF01230023A8
:102B7C00DBB208E07B6893F84130DBB2012B14BF69
:102B8C0001230023DBB2002B01D00123A9E03B6819
:102B9C00002B04D17B68022283F83E2013E03B68B3
:102BAC00042B04D17B68022283F83F200BE03B68A6
:102BBC00082B04D17B68022283F8402003E07B6859
:102BCC00022283F841203B680C2B41D801A252F819
:102BDC0023F000BF152C00085D2C00085D2C0008AC
:102BEC005D2C0008272C00085D2C00085D2C0008CB
:102BFC005D2C0008392C00085D2C00085D2C0008A9
:102C0C005D2C00084B2C00087B681B68DA687B681D
:102C1C001B6842F00202DA601DE07B681B68DA6810
:102C2C007B681B6842F00402DA6014E07B681B6866
:102C3C00DA687B681B6842F00802DA600BE07B689C
:102C4C001B68DA687B681B6842F01002DA6002E0ED
:102C5C000123FB7300BFFB7B002B41D17B681B68FE
:102C6C0001223968184600F019FE7B681B681F4A60
:102C7C00934207D17B681B685A6C7B681B6842F4D3
:102C8C0000425A647B681B68184A93420ED07B68DA
:102C9C001B68B3F1804F09D07B681B68144A9342C0
:102CAC0004D07B681B68134A934211D17B681B6864
:102CBC009B6803F00703BB60BB68062B10D07B68D6
:102CCC001B681A687B681B6842F001021A6007E0F7
:102CDC007B681B681A687B681B6842F001021A60EB
:102CEC00FB7B18461037BD4680BD00BF002C014051
:102CFC00000400400008004080B584B000AF78604C
:102D0C0039600023FB733B680C2B41D801A252F8AD
:102D1C0023F000BF552D00089D2D00089D2D0008A7
:102D2C009D2D0008672D00089D2D00089D2D000885
:102D3C009D2D0008792D00089D2D00089D2D000863
:102D4C009D2D00088B2D00087B681B68DA687B685A
:102D5C001B6822F00202DA601DE07B681B68DA68EF
:102D6C007B681B6822F00402DA6014E07B681B6845
:102D7C00DA687B681B6822F00802DA600BE07B687B
:102D8C001B68DA687B681B6822F01002DA6002E0CC
:102D9C000123FB7300BFFB7B002B57D17B681B68A7
:102DAC0000223968184600F079FD7B681B682A4AB6
:102DBC00934217D17B681B681A6A41F211131340B6
:102DCC00002B0FD17B681B681A6A40F244431340F6
:102DDC00002B07D17B681B685A6C7B681B6822F43C
:102DEC0000425A647B681B681A6A41F21113134043
:102DFC00002B0FD17B681B681A6A40F244431340C6
:102E0C00002B07D17B681B681A687B681B6822F053
:102E1C0001021A603B68002B04D17B68012283F805
:102E2C003E2013E03B68042B04D17B68012283F81D
:102E3C003F200BE03B68082B04D17B68012283F810
:102E4C00402003E07B68012283F84120FB7B18467D
:102E5C001037BD4680BD00BF002C014080B584B04A
:102E6C0000AF78607B681B68DB68FB607B681B6865
:102E7C001B69BB60BB6803F00203002B20D0FB680E
:102E8C0003F00203002B1BD07B681B686FF002025F
:102E9C001A617B6801221A777B681B689B6903F0B7
:102EAC000303002B03D0786800F05AFA05E0786829
:102EBC0000F04DFA7868FDF7C5FD7B6800221A77A3
:102ECC00BB6803F00403002B20D0FB6803F0040361
:102EDC00002B1BD07B681B686FF004021A617B68A7
:102EEC0002221A777B681B689B6903F44073002BE2
:102EFC0003D0786800F034FA05E0786800F027FA1F
:102F0C007868FDF79FFD7B6800221A77BB6803F099
:102F1C000803002B20D0FB6803F00803002B1BD008
:102F2C007B681B686FF008021A617B6804221A77B1
:102F3C007B681B68DB6903F00303002B03D0786804
:102F4C0000F00EFA05E0786800F001FA7868FDF7F9
:102F5C0079FD7B6800221A77BB6803F01003002B05
:102F6C0020D0FB6803F01003002B1BD07B681B6880
:102F7C006FF010021A617B6808221A777B681B6855
:102F8C00DB6903F44073002B03D0786800F0E8F998
:102F9C0005E0786800F0DBF97868FDF753FD7B6895
:102FAC0000221A77BB6803F00103002B0CD0FB68DE
:102FBC0003F00103002B07D07B681B686FF0010244
:102FCC001A617868FDF708FEBB6803F08003002BDC
:102FDC000CD0FB6803F08003002B07D07B681B68C8
:102FEC006FF080021A61786800F0E3FCBB6803F0B4
:102FFC004003002B0CD0FB6803F04003002B07D0E0
:10300C007B681B686FF040021A61786800F0B1F9B8
:10301C00BB6803F02003002B0CD0FB6803F02003EB
:10302C00002B07D07B681B686FF020021A61786850
:10303C0000F0B6FC00BF1037BD4680BD80B586B031
:10304C0000AFF860B9607A600023FB75FB6893F8F9
:10305C003C30012B01D10223AEE0FB68012283F846
:10306C003C207B680C2B00F29F8001A252F823F0CD
:10307C00B1300008B5310008B5310008B531000891
:10308C00F1300008B5310008B5310008B531000841
:10309C0033310008B5310008B5310008B5310008EE
:1030AC0073310008FB681B68B968184600F0D8F942
:1030BC00FB681B689A69FB681B6842F008029A61FE
:1030CC00FB681B689A69FB681B6822F004029A6112
:1030DC00FB681B689969BB681A69FB681B680A4323
:1030EC009A6164E0FB681B68B968184600F01EFA28
:1030FC00FB681B689A69FB681B6842F400629A6162
:10310C00FB681B689A69FB681B6822F480629A61F1
:10311C00FB681B689969BB681B691A02FB681B6812
:10312C000A439A6143E0FB681B68B968184600F0D3
:10313C0067FAFB681B68DA69FB681B6842F00802D7
:10314C00DA61FB681B68DA69FB681B6822F0040211
:10315C00DA61FB681B68D969BB681A69FB681B6874
:10316C000A43DA6123E0FB681B68B968184600F073
:10317C00B1FAFB681B68DA69FB681B6842F40062F1
:10318C00DA61FB681B68DA69FB681B6822F48062F1
:10319C00DA61FB681B68D969BB681B691A02FB689A
:1031AC001B680A43DA6102E00123FB7500BFFB6870
:1031BC00002283F83C20FB7D18461837BD4680BDA5
:1031CC0080B584B000AF786039600023FB737B68F6
:1031DC0093F83C30012B01D10223B4E07B6801222F
:1031EC0083F83C207B68022283F83D207B681B68B7
:1031FC009B68BB60BB6823F07703BB60BB6823F4A0
:10320C007F43BB607B681B68BA689A603B681B682D
:10321C00B3F5005F3ED0B3F5005F00F28780B3F5E5
:10322C00805F00F08680B3F5805F7FD8702B1AD05A
:10323C00702B7BD8602B50D0602B77D8502B3CD088
:10324C00502B73D8402B58D0402B6FD8302B64D0D8
:10325C00302B6BD8202B60D0202B67D8002B5CD068
:10326C00102B5AD062E07B6818683B6899683B6801
:10327C005A683B68DB6800F0F2FA7B681B689B6855
:10328C00BB60BB6843F07703BB607B681B68BA68A4
:10329C009A604FE07B6818683B6899683B685A688D
:1032AC003B68DB6800F0DBFA7B681B689A687B681C
:1032BC001B6842F480429A603CE07B6818683B686B
:1032CC0059683B68DB681A4600F052FA7B681B6849
:1032DC005021184600F0A9FA2CE07B6818683B686E
:1032EC0059683B68DB681A4600F070FA7B681B680B
:1032FC006021184600F099FA1CE07B6818683B685E
:10330C0059683B68DB681A4600F032FA7B681B6828
:10331C004021184600F089FA0CE07B681A683B687B
:10332C001B681946104600F080FA03E00123FB737A
:10333C0000E000BF7B68012283F83D207B680022FF
:10334C0083F83C20FB7B18461037BD4680BD80B40B
:10335C0083B000AF786000BF0C37BD4680BC7047AF
:10336C0080B483B000AF786000BF0C37BD4680BC22
:10337C00704780B483B000AF786000BF0C37BD4697
:10338C0080BC704780B485B000AF786039607B68D2
:10339C001B68FB607B682F4A93420BD07B68B3F1B0
:1033AC00804F07D07B682C4A934203D07B682B4A12
:1033BC00934208D1FB6823F07003FB603B685B68A9
:1033CC00FA681343FB607B68224A93420BD07B68FC
:1033DC00B3F1804F07D07B681F4A934203D07B68C0
:1033EC001E4A934208D1FB6823F44073FB603B6890
:1033FC00DB68FA681343FB60FB6823F080023B68D0
:10340C005B691343FB607B68FA681A603B689A68D7
:10341C007B68DA623B681A687B689A627B680D4A43
:10342C00934203D13B681A697B681A637B6801225B
:10343C005A617B681B6903F00103002B05D07B6884
:10344C001B6923F001027B681A6100BF1437BD466B
:10345C0080BC7047002C0140000400400008004074
:10346C0080B487B000AF786039607B681B6A7B6181
:10347C007B681B6A23F001027B681A627B685B68BD
:10348C003B617B689B69FB60FB6823F07003FB600E
:10349C00FB6823F00303FB603B681B68FA6813436B
:1034AC00FB607B6923F002037B613B689B687A6954
:1034BC0013437B617B681C4A93420CD17B6923F0DC
:1034CC0008037B613B68DB687A6913437B617B692A
:1034DC0023F004037B617B68134A934211D13B694F
:1034EC0023F480733B613B6923F400733B613B68BD
:1034FC005B693A6913433B613B689B693A691343C7
:10350C003B617B683A695A607B68FA689A613B68F0
:10351C005A687B685A637B687A691A6200BF1C37E9
:10352C00BD4680BC704700BF002C014080B487B002
:10353C0000AF786039607B681B6A7B617B681B6AB3
:10354C0023F010027B681A627B685B683B617B68C6
:10355C009B69FB60FB6823F4E043FB60FB6823F48E
:10356C004073FB603B681B681B02FA681343FB60EB
:10357C007B6923F020037B613B689B681B017A69A4
:10358C0013437B617B681D4A93420DD17B6923F009
:10359C0080037B613B68DB681B017A6913437B61A9
:1035AC007B6923F040037B617B68144A934213D1FF
:1035BC003B6923F480633B613B6923F400633B610B
:1035CC003B685B699B003A6913433B613B689B69B1
:1035DC009B003A6913433B617B683A695A607B688C
:1035EC00FA689A613B685A687B689A637B687A6967
:1035FC001A6200BF1C37BD4680BC7047002C0140CE
:10360C0080B487B000AF786039607B681B6A7B61DF
:10361C007B681B6A23F480727B681A627B685B6828
:10362C003B617B68DB69FB60FB6823F07003FB602C
:10363C00FB6823F00303FB603B681B68FA681343C9
:10364C00FB607B6923F400737B613B689B681B0206
:10365C007A6913437B617B681D4A93420DD17B6968
:10366C0023F400637B613B68DB681B027A691343BC
:10367C007B617B6923F480637B617B68144A934292
:10368C0013D13B6923F480533B613B6923F4005312
:10369C003B613B685B691B013A6913433B613B68C7
:1036AC009B691B013A6913433B617B683A695A6019
:1036BC007B68FA68DA613B685A687B68DA637B6816
:1036CC007A691A6200BF1C37BD4680BC704700BFC8
:1036DC00002C014080B487B000AF786039607B6803
:1036EC001B6A3B617B681B6A23F480527B681A62FD
:1036FC007B685B687B617B68DB69FB60FB6823F440
:10370C00E043FB60FB6823F44073FB603B681B6881
:10371C001B02FA681343FB603B6923F400533B61C3
:10372C003B689B681B033A6913433B617B680F4AF8
:10373C00934209D17B6923F480437B613B685B69CD
:10374C009B017A6913437B617B687A695A607B6859
:10375C00FA68DA613B685A687B681A647B683A6974
:10376C001A6200BF1C37BD4680BC7047002C01405C
:10377C0080B487B000AFF860B9607A60FB681B6AF0
:10378C007B61FB681B6A23F00102FB681A62FB6811
:10379C009B693B613B6923F0F0033B617B681B0138
:1037AC003A6913433B617B6923F00A037B617A69B5
:1037BC00BB6813437B61FB683A699A61FB687A6961
:1037CC001A6200BF1C37BD4680BC704780B487B0FE
:1037DC0000AFF860B9607A60FB681B6A7B61FB68BC
:1037EC001B6A23F01002FB681A62FB689B693B6141
:1037FC003B6923F470433B617B681B033A691343B9
:10380C003B617B6923F0A0037B61BB681B017A6978
:10381C0013437B61FB683A699A61FB687A691A62A7
:10382C0000BF1C37BD4680BC704780B485B000AF6C
:10383C00786039607B689B68FB60FB6823F07003E1
:10384C00FB603A68FB68134343F00703FB607B683B
:10385C00FA689A6000BF1437BD4680BC704780B4CC
:10386C0087B000AFF860B9607A603B60FB689B681A
:10387C007B617B6923F47F437B613B681A027B6825
:10388C001A43BB6813437A6913437B61FB687A69FB
:10389C009A6000BF1C37BD4680BC704780B487B0AF
:1038AC0000AFF860B9607A60BB6803F01F030122B7
:1038BC0002FA03F37B61FB681A6A7B69DB431A40EB
:1038CC00FB681A62FB681A6ABB6803F01F0379680D
:1038DC0001FA03F31A43FB681A6200BF1C37BD469A
:1038EC0080BC704780B485B000AF786039607B686D
:1038FC0093F83C30012B01D1022346E07B68012276
:10390C0083F83C207B68022283F83D207B681B688F
:10391C005B68FB607B681B689B68BB60FB6823F083
:10392C007003FB603B681B68FA681343FB607B68A1
:10393C001B68FA685A607B681B68164A93420ED063
:10394C007B681B68B3F1804F09D07B681B68124AF7
:10395C00934204D07B681B68104A93420CD1BB681D
:10396C0023F08003BB603B685B68BA681343BB60A1
:10397C007B681B68BA689A607B68012283F83D20DB
:10398C007B68002283F83C20002318461437BD4680
:10399C0080BC7047002C014000040040000800402F
:1039AC0080B483B000AF786000BF0C37BD4680BCDC
:1039BC00704780B483B000AF786000BF0C37BD4651
:1039CC0080BC704780B582B000AF78607B68002BFC
:1039DC0001D1012342E07B6893F84130DBB2002B2C
:1039EC0006D17B68002283F840207868FDF784FDBF
:1039FC007B68242283F841207B681B68DA687B682B
:103A0C001B6822F40052DA60786800F0B7FD7B681E
:103A1C001B681A697B681B6822F490421A617B68E8
:103A2C001B685A697B681B6822F02A025A617B6802
:103A3C001B68DA687B681B6842F40052DA607B68AA
:103A4C0000225A647B68202283F841207B68202264
:103A5C0083F842207B6800225A63002318460837FB
:103A6C00BD4680BD80B58AB002AFF860B9603B60DE
:103A7C001346FB8000237B61FB6893F84130DBB27B
:103A8C00202B75D1BB68002B02D0FB88002B01D1F9
:103A9C0001236EE0FB6800225A64FB68212283F844
:103AAC004120FDF7FBFD7861FB68FA889A84FB687E
:103ABC00FA88DA84FB689B68B3F5805F08D1FB68F1
:103ACC001B69002B04D10023FB61BB68BB6103E0C5
:103ADC00BB68FB610023BB612EE03B6800937B69F4
:103AEC0000228021F86800F01CFB0346002B05D057
:103AFC00FB68202283F8412003233AE0FB69002B6A
:103B0C000BD1BB691B881A46FB681B68C2F3080201
:103B1C005A60BB690233BB6107E0FB691A78FB682A
:103B2C001B685A60FB690133FB61FB68DB8C9BB241
:103B3C00013B9AB2FB68DA84FB68DB8C9BB2002BEE
:103B4C00CBD13B6800937B6900224021F86800F0E0
:103B5C00E8FA0346002B05D0FB68202283F84120AD
:103B6C00032306E0FB68202283F84120002300E0B9
:103B7C00022318462037BD4680BD80B584B000AF07
:103B8C00F860B9601346FB80FB6893F84230DBB2F7
:103B9C00202B12D1BB68002B02D0FB88002B01D14B
:103BAC0001230BE0FB6800221A63FB881A46B968F4
:103BBC00F86800F00FFB034600E0022318461037AC
:103BCC00BD4680BD80B5BAB000AF78607B681B681D
:103BDC001B68C7F8E4307B681B68DB68C7F8E0300B
:103BEC007B681B685B69C7F8DC300023C7F8D830EA
:103BFC000023C7F8D430D7F8E43003F00F03C7F82C
:103C0C00D830D7F8D830002B0FD1D7F8E43003F0E8
:103C1C002003002B09D0D7F8E03003F02003002B51
:103C2C0003D0786800F0ECFB5BE2D7F8D830002BBF
:103C3C0000F0DE80D7F8DC3003F00103002B06D156
:103C4C00D7F8E03003F49073002B00F0D180D7F854
:103C5C00E43003F00103002B0BD0D7F8E03003F471
:103C6C008073002B05D07B685B6C43F001027B6892
:103C7C005A64D7F8E43003F00403002B0BD0D7F8C8
:103C8C00DC3003F00103002B05D07B685B6C43F048
:103C9C0002027B685A64D7F8E43003F00203002B6D
:103CAC000BD0D7F8DC3003F00103002B05D07B6878
:103CBC005B6C43F004027B685A64D7F8E43003F081
:103CCC000803002B11D0D7F8E03003F02003002BB1
:103CDC0005D1D7F8DC3003F00103002B05D07B684D
:103CEC005B6C43F008027B685A647B685B6C002B4E
:103CFC0000F0F281D7F8E43003F02003002B08D059
:103D0C00D7F8E03003F02003002B02D0786800F0E5
:103D1C0077FB7B681B685B6903F04003002B14BFC7
:103D2C0001230023DBB2C7F8D4307B685B6C03F053
:103D3C000803002B03D1D7F8D430002B4FD0786870
:103D4C0000F081FA7B681B685B6903F04003002B71
:103D5C0041D07B681B681433C7F89C30D7F89C3073
:103D6C0053E8003FC7F89830D7F8983023F0400359
:103D7C00C7F8D0307B681B681433D7F8D020C7F84D
:103D8C00A820C7F8A430D7F8A410D7F8A82041E889
:103D9C000023C7F8A030D7F8A030002BD9D17B680E
:103DAC00DB6B002B13D07B68DB6B7E4A5A637B6822
:103DBC00DB6B1846FDF7C4FD0346002B16D07B6861
:103DCC00DB6B5B6B7A68D26B104698470EE07868B9
:103DDC0000F093F90AE0786800F08FF906E0786853
:103DEC0000F08BF97B6800225A6475E100BF73E127
:103DFC007B681B6B012B40F04F81D7F8E43003F04C
:103E0C001003002B00F04881D7F8E03003F01003CA
:103E1C00002B00F041810023BB607B681B681B6892
:103E2C00BB607B681B685B68BB60BB687B681B689E
:103E3C005B6903F04003002B00F0B6807B68DB6B02
:103E4C001B685B68A7F8BE30B7F8BE30002B00F0DB
:103E5C0045817B689B8DB7F8BE209A4280F03E81ED
:103E6C007B68B7F8BE20DA857B68DB6B9B69202BFF
:103E7C0000F088807B681B680C33C7F88830D7F853
:103E8C00883053E8003FC7F88430D7F8843023F4E7
:103E9C008073C7F8B8307B681B680C33D7F8B82030
:103EAC00C7F89420C7F89030D7F89010D7F8942022
:103EBC0041E80023C7F88C30D7F88C30002BD9D1CF
:103ECC007B681B6814337B677B6F53E8003F3B6751
:103EDC003B6F23F00103C7F8B4307B681B681433C5
:103EEC00D7F8B420C7F88020FB67F96FD7F880208B
:103EFC0041E80023BB67BB6F002BE1D17B681B68DB
:103F0C0014333B663B6E53E8003FFB65FB6D23F0BF
:103F1C004003C7F8B0307B681B681433D7F8B02067
:103F2C00FA66BB66B96EFA6E41E800237B667B6E5F
:103F3C00002BE3D17B68202283F842207B6800228F
:103F4C001A637B681B680C33FB64FB6C53E8003F03
:103F5C00BB64BB6C23F01003C7F8AC307B681B68E8
:103F6C000C33D7F8AC20BA657B65796DBA6D41E836
:103F7C0000233B653B6D002BE3D17B68DB6B184664
:103F8C00FDF7A3FC7B6802225A637B689A8D7B68E1
:103F9C00DB8D9BB2D31A9BB21946786800F0B6F849
:103FAC009CE000BF174300087B689A8D7B68DB8D13
:103FBC009BB2D31AA7F8CE307B68DB8D9BB2002B5B
:103FCC0000F08E80B7F8CE30002B00F089807B6833
:103FDC001B680C33BB63BB6B53E8003F7B637B6B91
:103FEC0023F49073C7F8C8307B681B680C33D7F880
:103FFC00C8207A643B64396C7A6C41E80023FB631B
:10400C00FB6B002BE3D17B681B6814337B627B6AF0
:10401C0053E8003F3B623B6A23F00103C7F8C4300E
:10402C007B681B681433D7F8C4203A63FB62F96AC7
:10403C003A6B41E80023BB62BB6A002BE3D17B687F
:10404C00202283F842207B6800221A637B681B685D
:10405C000C333B613B6953E8003FFB60FB6823F08A
:10406C001003C7F8C0307B681B680C33D7F8C0202E
:10407C00FA61BB61B969FA6941E800237B617B692C
:10408C00002BE3D17B6802225A63B7F8CE30194675
:10409C00786800F03BF823E0D7F8E43003F08003B5
:1040AC00002B09D0D7F8E03003F08003002B03D0AD
:1040BC00786800F03EF914E0D7F8E43003F04003E0
:1040CC00002B0ED0D7F8E03003F04003002B08D0C3
:1040DC00786800F07DF904E000BF02E000BF00E06A
:1040EC0000BFE837BD4680BD80B483B000AF7860B8
:1040FC0000BF0C37BD4680BC704780B483B000AFA6
:10410C00786000BF0C37BD4680BC704780B483B06C
:10411C0000AF78600B467B8000BF0C37BD4680BC7F
:10412C00704780B586B000AFF860B9603B6013464D
:10413C00FB713BE03B6AB3F1FF3F37D0FDF7AEFAC2
:10414C0002463B68D31A3A6A9A4202D33B6A002B66
:10415C0001D103233AE0FB681B68DB6803F004031E
:10416C00002B23D0BB68802B20D0BB68402B1DD0EC
:10417C00FB681B681B6803F00803082B16D100238F
:10418C007B61FB681B681B687B61FB681B685B6859
:10419C007B617B69F86800F056F8FB6808225A646A
:1041AC00FB68002283F8402001230FE0FB681B68AA
:1041BC001A68BB681340BA689A420CBF01230023EB
:1041CC00DBB21A46FB799A42B4D000231846183752
:1041DC00BD4680BD80B485B000AFF860B9601346B1
:1041EC00FB80FB68BA689A62FB68FA889A85FB6860
:1041FC00FA88DA85FB6800225A64FB68222283F86D
:10420C004220FB681B69002B07D0FB681B68DA682F
:10421C00FB681B6842F48072DA60FB681B685A69A1
:10422C00FB681B6842F001025A61FB681B68DA6884
:10423C00FB681B6842F02002DA6000231846143732
:10424C00BD4680BC704780B495B000AF78607B6889
:10425C001B680C337B637B6B53E8003F3B633B6B0E
:10426C0023F49073FB647B681B680C33FA6C3A6420
:10427C00FB63F96B3A6C41E80023BB63BB6B002B0F
:10428C00E5D17B681B6814333B623B6A53E8003F03
:10429C00FB61FB6923F00103BB647B681B6814336F
:1042AC00BA6CFA62BB62B96AFA6A41E800237B62B3
:1042BC007B6A002BE5D17B681B6B012B19D17B68CA
:1042CC001B680C33FB60FB6853E8003FBB60BB68AA
:1042DC0023F010037B647B681B680C337A6CBA6127
:1042EC007B617969BA6941E800233B613B69002B2A
:1042FC00E5D17B68202283F842207B6800221A6378
:10430C0000BF5437BD4680BC704780B584B000AF49
:10431C0078607B685B6AFB60FB680022DA85FB686F
:10432C000022DA84F868FFF7E8FE00BF1037BD46BC
:10433C0080BD80B485B000AF78607B6893F8413065
:10434C00DBB2212B3ED17B689B68B3F5805F14D127
:10435C007B681B69002B10D17B681B6AFB60FB68B8
:10436C001B881A467B681B68C2F308025A607B687C
:10437C001B6A9A1C7B681A6208E07B681B6A591CD2
:10438C007A6811621A787B681B685A607B68DB8CD0
:10439C009BB2013B9BB27A681946D184002B0FD19A
:1043AC007B681B68DA687B681B6822F08002DA6025
:1043BC007B681B68DA687B681B6842F04002DA6035
:1043CC00002300E0022318461437BD4680BC70471A
:1043DC0080B582B000AF78607B681B68DA687B6858
:1043EC001B6822F04002DA607B68202283F84120AF
:1043FC007868FFF779FE002318460837BD4680BD64
:10440C0080B58CB000AF78607B6893F84230DBB23B
:10441C00222B40F0AE807B689B68B3F5805F17D190
:10442C007B681B69002B13D10023FB627B689B6AA2
:10443C00BB627B681B685B689BB2C3F308039AB2D0
:10444C00BB6A1A807B689B6A9A1C7B689A6226E01E
:10445C007B689B6AFB620023BB627B689B68B3F53D
:10446C00805F07D07B689B68002B0AD17B681B6937
:10447C00002B06D17B681B685B68DAB2FB6A1A708A
:10448C0008E07B681B685B68DBB203F07F03DAB281
:10449C00FB6A1A707B689B6A5A1C7B689A627B6801
:1044AC00DB8D9BB2013B9BB27A681946D185002B00
:1044BC005DD17B681B68DA687B681B6822F0200280
:1044CC00DA607B681B68DA687B681B6822F4807290
:1044DC00DA607B681B685A697B681B6822F00102F2
:1044EC005A617B68202283F842207B6800225A6341
:1044FC007B681B6B012B35D17B6800221A637B68B0
:10450C001B680C337B617B6953E8003F3B613B6963
:10451C0023F010037B627B681B680C337A6A3A6267
:10452C00FB61F9693A6A41E80023BB61BB69002B66
:10453C00E5D17B681B681B6803F01003102B0AD1B4
:10454C000023FB607B681B681B68FB607B681B6837
:10455C005B68FB60FB687B689B8D19467868FFF78E
:10456C00D5FD02E07868FCF759F8002302E000233F
:10457C0000E0022318463037BD4680BD80B584B0BC
:10458C0000AF78607B681B681B6923F440517B6823
:10459C00DA687B681B680A431A617B689A687B68D7
:1045AC001B691A437B685B691343BB607B681B68A0
:1045BC00DB6823F4B05323F00C037A681268B968F3
:1045CC000B43D3607B681B685B6923F440717B6889
:1045DC009A697B681B680A435A617B681B682C4A82
:1045EC00934203D1FEF73EF9F86002E0FEF726F99C
:1045FC00F860FA6813469B0013449A001A447B68CF
:10460C005B689B00B2FBF3F3224AA2FB03235B091A
:10461C001901FA6813469B0013449A001A447B68EC
:10462C005B689B00B2FBF3F21A4BA3FB02035B0922
:10463C00642000FB03F3D31A1B013233154AA2FB8F
:10464C0003235B0903F0F0031944FA6813469B003B
:10465C0013449A001A447B685B689B00B2FBF3F22C
:10466C000C4BA3FB02035B09642000FB03F3D31A7E
:10467C001B013233074AA2FB03235B0903F00F0231
:10468C007B681B680A449A6000BF1037BD4680BD2A
:10469C00003801401F85EB5103460244934200D180
:1046AC00704703F8011BF9E770B500260C4D0D4C53
:1046BC00641BA410A64209D100F01AF800260A4D7A
:1046CC000A4C641BA410A64205D170BD55F8043BDE
:1046DC0098470136EEE755F8043B98470136F2E768
:1046EC00B4470008B4470008B4470008B8470008AE
:1046FC00F8B500BFF8BC08BC9E467047F8B500BFC3
:08470C00F8BC08BC9E46704792
:104714004D312063616C692074696D656F75740A2D
:10472400000000004D322063616C692074696D657E
:104734006F75740A000000004D332063616C6920BA
:1047440074696D656F75740A000000004D34206350
:10475400616C692074696D656F75740A00000000EE
:104764004D352063616C692074696D656F75740AD9
:104774000000000057726F6E672063616C692063EC
:104784006D640A0000000000000000000102030440
:1047940006070809000000000102030402030405DF
:1047A400060708090A0B0C0D0E0F10100102000079
:0447B40031010008C7
:0447B8000D010008E7
:0C47BC0000127A00100000000100000054
:04000005080015AD2D
:00000001FF
